{
  "contractName": "KittyButts",
  "abi": [
    {
      "inputs": [
        {
          "internalType": "string",
          "name": "name",
          "type": "string"
        },
        {
          "internalType": "string",
          "name": "symbol",
          "type": "string"
        },
        {
          "internalType": "uint256",
          "name": "maxNftSupply",
          "type": "uint256"
        },
        {
          "internalType": "uint256",
          "name": "saleStart",
          "type": "uint256"
        }
      ],
      "stateMutability": "nonpayable",
      "type": "constructor"
    },
    {
      "anonymous": false,
      "inputs": [
        {
          "indexed": true,
          "internalType": "address",
          "name": "owner",
          "type": "address"
        },
        {
          "indexed": true,
          "internalType": "address",
          "name": "approved",
          "type": "address"
        },
        {
          "indexed": true,
          "internalType": "uint256",
          "name": "tokenId",
          "type": "uint256"
        }
      ],
      "name": "Approval",
      "type": "event"
    },
    {
      "anonymous": false,
      "inputs": [
        {
          "indexed": true,
          "internalType": "address",
          "name": "owner",
          "type": "address"
        },
        {
          "indexed": true,
          "internalType": "address",
          "name": "operator",
          "type": "address"
        },
        {
          "indexed": false,
          "internalType": "bool",
          "name": "approved",
          "type": "bool"
        }
      ],
      "name": "ApprovalForAll",
      "type": "event"
    },
    {
      "anonymous": false,
      "inputs": [
        {
          "indexed": true,
          "internalType": "address",
          "name": "previousOwner",
          "type": "address"
        },
        {
          "indexed": true,
          "internalType": "address",
          "name": "newOwner",
          "type": "address"
        }
      ],
      "name": "OwnershipTransferred",
      "type": "event"
    },
    {
      "anonymous": false,
      "inputs": [
        {
          "indexed": true,
          "internalType": "address",
          "name": "from",
          "type": "address"
        },
        {
          "indexed": true,
          "internalType": "address",
          "name": "to",
          "type": "address"
        },
        {
          "indexed": true,
          "internalType": "uint256",
          "name": "tokenId",
          "type": "uint256"
        }
      ],
      "name": "Transfer",
      "type": "event"
    },
    {
      "inputs": [],
      "name": "MAX_KITTIES",
      "outputs": [
        {
          "internalType": "uint256",
          "name": "",
          "type": "uint256"
        }
      ],
      "stateMutability": "view",
      "type": "function",
      "constant": true
    },
    {
      "inputs": [],
      "name": "REVEAL_TIMESTAMP",
      "outputs": [
        {
          "internalType": "uint256",
          "name": "",
          "type": "uint256"
        }
      ],
      "stateMutability": "view",
      "type": "function",
      "constant": true
    },
    {
      "inputs": [
        {
          "internalType": "address",
          "name": "to",
          "type": "address"
        },
        {
          "internalType": "uint256",
          "name": "tokenId",
          "type": "uint256"
        }
      ],
      "name": "approve",
      "outputs": [],
      "stateMutability": "nonpayable",
      "type": "function"
    },
    {
      "inputs": [
        {
          "internalType": "address",
          "name": "owner",
          "type": "address"
        }
      ],
      "name": "balanceOf",
      "outputs": [
        {
          "internalType": "uint256",
          "name": "",
          "type": "uint256"
        }
      ],
      "stateMutability": "view",
      "type": "function",
      "constant": true
    },
    {
      "inputs": [
        {
          "internalType": "uint256",
          "name": "tokenId",
          "type": "uint256"
        }
      ],
      "name": "getApproved",
      "outputs": [
        {
          "internalType": "address",
          "name": "",
          "type": "address"
        }
      ],
      "stateMutability": "view",
      "type": "function",
      "constant": true
    },
    {
      "inputs": [
        {
          "internalType": "address",
          "name": "owner",
          "type": "address"
        },
        {
          "internalType": "address",
          "name": "operator",
          "type": "address"
        }
      ],
      "name": "isApprovedForAll",
      "outputs": [
        {
          "internalType": "bool",
          "name": "",
          "type": "bool"
        }
      ],
      "stateMutability": "view",
      "type": "function",
      "constant": true
    },
    {
      "inputs": [],
      "name": "kittyPrice",
      "outputs": [
        {
          "internalType": "uint256",
          "name": "",
          "type": "uint256"
        }
      ],
      "stateMutability": "view",
      "type": "function",
      "constant": true
    },
    {
      "inputs": [],
      "name": "maxPurchase",
      "outputs": [
        {
          "internalType": "uint256",
          "name": "",
          "type": "uint256"
        }
      ],
      "stateMutability": "view",
      "type": "function",
      "constant": true
    },
    {
      "inputs": [],
      "name": "name",
      "outputs": [
        {
          "internalType": "string",
          "name": "",
          "type": "string"
        }
      ],
      "stateMutability": "view",
      "type": "function",
      "constant": true
    },
    {
      "inputs": [],
      "name": "owner",
      "outputs": [
        {
          "internalType": "address",
          "name": "",
          "type": "address"
        }
      ],
      "stateMutability": "view",
      "type": "function",
      "constant": true
    },
    {
      "inputs": [
        {
          "internalType": "uint256",
          "name": "tokenId",
          "type": "uint256"
        }
      ],
      "name": "ownerOf",
      "outputs": [
        {
          "internalType": "address",
          "name": "",
          "type": "address"
        }
      ],
      "stateMutability": "view",
      "type": "function",
      "constant": true
    },
    {
      "inputs": [],
      "name": "renounceOwnership",
      "outputs": [],
      "stateMutability": "nonpayable",
      "type": "function"
    },
    {
      "inputs": [
        {
          "internalType": "address",
          "name": "from",
          "type": "address"
        },
        {
          "internalType": "address",
          "name": "to",
          "type": "address"
        },
        {
          "internalType": "uint256",
          "name": "tokenId",
          "type": "uint256"
        }
      ],
      "name": "safeTransferFrom",
      "outputs": [],
      "stateMutability": "nonpayable",
      "type": "function"
    },
    {
      "inputs": [
        {
          "internalType": "address",
          "name": "from",
          "type": "address"
        },
        {
          "internalType": "address",
          "name": "to",
          "type": "address"
        },
        {
          "internalType": "uint256",
          "name": "tokenId",
          "type": "uint256"
        },
        {
          "internalType": "bytes",
          "name": "_data",
          "type": "bytes"
        }
      ],
      "name": "safeTransferFrom",
      "outputs": [],
      "stateMutability": "nonpayable",
      "type": "function"
    },
    {
      "inputs": [],
      "name": "saleIsActive",
      "outputs": [
        {
          "internalType": "bool",
          "name": "",
          "type": "bool"
        }
      ],
      "stateMutability": "view",
      "type": "function",
      "constant": true
    },
    {
      "inputs": [
        {
          "internalType": "address",
          "name": "operator",
          "type": "address"
        },
        {
          "internalType": "bool",
          "name": "approved",
          "type": "bool"
        }
      ],
      "name": "setApprovalForAll",
      "outputs": [],
      "stateMutability": "nonpayable",
      "type": "function"
    },
    {
      "inputs": [],
      "name": "startingIndex",
      "outputs": [
        {
          "internalType": "uint256",
          "name": "",
          "type": "uint256"
        }
      ],
      "stateMutability": "view",
      "type": "function",
      "constant": true
    },
    {
      "inputs": [],
      "name": "startingIndexBlock",
      "outputs": [
        {
          "internalType": "uint256",
          "name": "",
          "type": "uint256"
        }
      ],
      "stateMutability": "view",
      "type": "function",
      "constant": true
    },
    {
      "inputs": [],
      "name": "symbol",
      "outputs": [
        {
          "internalType": "string",
          "name": "",
          "type": "string"
        }
      ],
      "stateMutability": "view",
      "type": "function",
      "constant": true
    },
    {
      "inputs": [
        {
          "internalType": "uint256",
          "name": "index",
          "type": "uint256"
        }
      ],
      "name": "tokenByIndex",
      "outputs": [
        {
          "internalType": "uint256",
          "name": "",
          "type": "uint256"
        }
      ],
      "stateMutability": "view",
      "type": "function",
      "constant": true
    },
    {
      "inputs": [
        {
          "internalType": "address",
          "name": "owner",
          "type": "address"
        },
        {
          "internalType": "uint256",
          "name": "index",
          "type": "uint256"
        }
      ],
      "name": "tokenOfOwnerByIndex",
      "outputs": [
        {
          "internalType": "uint256",
          "name": "",
          "type": "uint256"
        }
      ],
      "stateMutability": "view",
      "type": "function",
      "constant": true
    },
    {
      "inputs": [
        {
          "internalType": "uint256",
          "name": "tokenId",
          "type": "uint256"
        }
      ],
      "name": "tokenURI",
      "outputs": [
        {
          "internalType": "string",
          "name": "",
          "type": "string"
        }
      ],
      "stateMutability": "view",
      "type": "function",
      "constant": true
    },
    {
      "inputs": [],
      "name": "totalSupply",
      "outputs": [
        {
          "internalType": "uint256",
          "name": "",
          "type": "uint256"
        }
      ],
      "stateMutability": "view",
      "type": "function",
      "constant": true
    },
    {
      "inputs": [
        {
          "internalType": "address",
          "name": "from",
          "type": "address"
        },
        {
          "internalType": "address",
          "name": "to",
          "type": "address"
        },
        {
          "internalType": "uint256",
          "name": "tokenId",
          "type": "uint256"
        }
      ],
      "name": "transferFrom",
      "outputs": [],
      "stateMutability": "nonpayable",
      "type": "function"
    },
    {
      "inputs": [
        {
          "internalType": "address",
          "name": "newOwner",
          "type": "address"
        }
      ],
      "name": "transferOwnership",
      "outputs": [],
      "stateMutability": "nonpayable",
      "type": "function"
    },
    {
      "inputs": [
        {
          "internalType": "bytes4",
          "name": "interfaceId",
          "type": "bytes4"
        }
      ],
      "name": "supportsInterface",
      "outputs": [
        {
          "internalType": "bool",
          "name": "",
          "type": "bool"
        }
      ],
      "stateMutability": "view",
      "type": "function",
      "constant": true
    },
    {
      "inputs": [],
      "name": "withdraw",
      "outputs": [],
      "stateMutability": "nonpayable",
      "type": "function"
    },
    {
      "inputs": [],
      "name": "reserveTokens",
      "outputs": [],
      "stateMutability": "nonpayable",
      "type": "function"
    },
    {
      "inputs": [
        {
          "internalType": "uint256",
          "name": "numberOfTokens",
          "type": "uint256"
        }
      ],
      "name": "mintKittyButt",
      "outputs": [],
      "stateMutability": "payable",
      "type": "function",
      "payable": true
    },
    {
      "inputs": [
        {
          "internalType": "uint256",
          "name": "revealTimeStamp",
          "type": "uint256"
        }
      ],
      "name": "setRevealTimestamp",
      "outputs": [],
      "stateMutability": "nonpayable",
      "type": "function"
    },
    {
      "inputs": [],
      "name": "flipSaleState",
      "outputs": [],
      "stateMutability": "nonpayable",
      "type": "function"
    },
    {
      "inputs": [
        {
          "internalType": "string",
          "name": "newBaseURI",
          "type": "string"
        }
      ],
      "name": "setBaseURI",
      "outputs": [],
      "stateMutability": "nonpayable",
      "type": "function"
    },
    {
      "inputs": [],
      "name": "setStartingIndex",
      "outputs": [],
      "stateMutability": "nonpayable",
      "type": "function"
    },
    {
      "inputs": [],
      "name": "emergencySetStartingIndexBlock",
      "outputs": [],
      "stateMutability": "nonpayable",
      "type": "function"
    }
  ],
  "bytecode": "0x60806040526000600e60006101000a81548160ff0219169083151502179055503480156200002c57600080fd5b506040516200489a3803806200489a8339818101604052810190620000529190620002ab565b838381600090805190602001906200006c92919062000172565b5080600190805190602001906200008592919062000172565b5050506000620000a36200016a640100000000026401000000009004565b905080600a60006101000a81548173ffffffffffffffffffffffffffffffffffffffff021916908373ffffffffffffffffffffffffffffffffffffffff1602179055508073ffffffffffffffffffffffffffffffffffffffff16600073ffffffffffffffffffffffffffffffffffffffff167f8be0079c531659141344cd1fd0a4f28419497f9722a3daafe3b4186f6b6457e060405160405180910390a35081600d81905550620bdd80816200015a9190620003b0565b600f81905550505050506200052a565b600033905090565b82805462000180906200044d565b90600052602060002090601f016020900481019282620001a45760008555620001f0565b82601f10620001bf57805160ff1916838001178555620001f0565b82800160010185558215620001f0579182015b82811115620001ef578251825591602001919060010190620001d2565b5b509050620001ff919062000203565b5090565b5b808211156200021e57600081600090555060010162000204565b5090565b60006200023962000233846200037d565b62000349565b9050828152602081018484840111156200025257600080fd5b6200025f84828562000417565b509392505050565b600082601f8301126200027957600080fd5b81516200028b84826020860162000222565b91505092915050565b600081519050620002a58162000510565b92915050565b60008060008060808587031215620002c257600080fd5b600085015167ffffffffffffffff811115620002dd57600080fd5b620002eb8782880162000267565b945050602085015167ffffffffffffffff8111156200030957600080fd5b620003178782880162000267565b93505060406200032a8782880162000294565b92505060606200033d8782880162000294565b91505092959194509250565b6000604051905081810181811067ffffffffffffffff82111715620003735762000372620004e1565b5b8060405250919050565b600067ffffffffffffffff8211156200039b576200039a620004e1565b5b601f19601f8301169050602081019050919050565b6000620003bd826200040d565b9150620003ca836200040d565b9250827fffffffffffffffffffffffffffffffffffffffffffffffffffffffffffffffff0382111562000402576200040162000483565b5b828201905092915050565b6000819050919050565b60005b83811015620004375780820151818401526020810190506200041a565b8381111562000447576000848401525b50505050565b600060028204905060018216806200046657607f821691505b602082108114156200047d576200047c620004b2565b5b50919050565b7f4e487b7100000000000000000000000000000000000000000000000000000000600052601160045260246000fd5b7f4e487b7100000000000000000000000000000000000000000000000000000000600052602260045260246000fd5b7f4e487b7100000000000000000000000000000000000000000000000000000000600052604160045260246000fd5b6200051b816200040d565b81146200052757600080fd5b50565b614360806200053a6000396000f3fe608060405260043610610216576000357c0100000000000000000000000000000000000000000000000000000000900480636dd9a49d1161012a578063a22cb465116100bd578063e36d64981161008c578063e36d6498146106f7578063e985e9c514610722578063e98665501461075f578063eb8d244414610776578063f2fde38b146107a157610216565b8063a22cb4651461063d578063b88d4fde14610666578063c87b56dd1461068f578063cb774d47146106cc57610216565b806384d31e7a116100f957806384d31e7a146105a05780638da5cb5b146105bc57806395d89b41146105e7578063977b055b1461061257610216565b80636dd9a49d1461050a57806370a0823114610535578063715018a6146105725780637d17fcbe1461058957610216565b806327ac36c4116101ad5780633ccfd60b1161017c5780633ccfd60b1461042757806342842e0e1461043e5780634f6ccce71461046757806355f804b3146104a45780636352211e146104cd57610216565b806327ac36c4146103915780632a05a715146103a85780632f745c59146103d357806334918dfd1461041057610216565b8063095ea7b3116101e9578063095ea7b3146102e957806318160ddd1461031257806318e20a381461033d57806323b872dd1461036857610216565b8063018a2c371461021b57806301ffc9a71461024457806306fdde0314610281578063081812fc146102ac575b600080fd5b34801561022757600080fd5b50610242600480360381019061023d9190613154565b6107ca565b005b34801561025057600080fd5b5061026b600480360381019061026691906130c1565b610850565b6040516102789190613b5e565b60405180910390f35b34801561028d57600080fd5b50610296610862565b6040516102a39190613b79565b60405180910390f35b3480156102b857600080fd5b506102d360048036038101906102ce9190613154565b6108f4565b6040516102e09190613af7565b60405180910390f35b3480156102f557600080fd5b50610310600480360381019061030b9190613085565b610979565b005b34801561031e57600080fd5b50610327610a91565b6040516103349190613e9b565b60405180910390f35b34801561034957600080fd5b50610352610a9e565b60405161035f9190613e9b565b60405180910390f35b34801561037457600080fd5b5061038f600480360381019061038a9190612f7f565b610aa4565b005b34801561039d57600080fd5b506103a6610b04565b005b3480156103b457600080fd5b506103bd610bc4565b6040516103ca9190613e9b565b60405180910390f35b3480156103df57600080fd5b506103fa60048036038101906103f59190613085565b610bcf565b6040516104079190613e9b565b60405180910390f35b34801561041c57600080fd5b50610425610c74565b005b34801561043357600080fd5b5061043c610d1c565b005b34801561044a57600080fd5b5061046560048036038101906104609190612f7f565b610dfe565b005b34801561047357600080fd5b5061048e60048036038101906104899190613154565b610e1e565b60405161049b9190613e9b565b60405180910390f35b3480156104b057600080fd5b506104cb60048036038101906104c69190613113565b610eb5565b005b3480156104d957600080fd5b506104f460048036038101906104ef9190613154565b610f4b565b6040516105019190613af7565b60405180910390f35b34801561051657600080fd5b5061051f610ffd565b60405161052c9190613e9b565b60405180910390f35b34801561054157600080fd5b5061055c60048036038101906105579190612f1a565b611003565b6040516105699190613e9b565b60405180910390f35b34801561057e57600080fd5b506105876110bb565b005b34801561059557600080fd5b5061059e6111f8565b005b6105ba60048036038101906105b59190613154565b6112c2565b005b3480156105c857600080fd5b506105d161148e565b6040516105de9190613af7565b60405180910390f35b3480156105f357600080fd5b506105fc6114b8565b6040516106099190613b79565b60405180910390f35b34801561061e57600080fd5b5061062761154a565b6040516106349190613e9b565b60405180910390f35b34801561064957600080fd5b50610664600480360381019061065f9190613049565b61154f565b005b34801561067257600080fd5b5061068d60048036038101906106889190612fce565b6116d0565b005b34801561069b57600080fd5b506106b660048036038101906106b19190613154565b611732565b6040516106c39190613b79565b60405180910390f35b3480156106d857600080fd5b506106e16117d9565b6040516106ee9190613e9b565b60405180910390f35b34801561070357600080fd5b5061070c6117df565b6040516107199190613e9b565b60405180910390f35b34801561072e57600080fd5b5061074960048036038101906107449190612f43565b6117e5565b6040516107569190613b5e565b60405180910390f35b34801561076b57600080fd5b50610774611879565b005b34801561078257600080fd5b5061078b61198c565b6040516107989190613b5e565b60405180910390f35b3480156107ad57600080fd5b506107c860048036038101906107c39190612f1a565b61199f565b005b6107d2611b4b565b73ffffffffffffffffffffffffffffffffffffffff166107f061148e565b73ffffffffffffffffffffffffffffffffffffffff1614610846576040517f08c379a000000000000000000000000000000000000000000000000000000000815260040161083d90613d9b565b60405180910390fd5b80600f8190555050565b600061085b82611b53565b9050919050565b60606000805461087190614155565b80601f016020809104026020016040519081016040528092919081815260200182805461089d90614155565b80156108ea5780601f106108bf576101008083540402835291602001916108ea565b820191906000526020600020905b8154815290600101906020018083116108cd57829003601f168201915b5050505050905090565b60006108ff82611bcd565b61093e576040517f08c379a000000000000000000000000000000000000000000000000000000000815260040161093590613d7b565b60405180910390fd5b6004600083815260200190815260200160002060009054906101000a900473ffffffffffffffffffffffffffffffffffffffff169050919050565b600061098482610f4b565b90508073ffffffffffffffffffffffffffffffffffffffff168373ffffffffffffffffffffffffffffffffffffffff1614156109f5576040517f08c379a00000000000000000000000000000000000000000000000000000000081526004016109ec90613dfb565b60405180910390fd5b8073ffffffffffffffffffffffffffffffffffffffff16610a14611b4b565b73ffffffffffffffffffffffffffffffffffffffff161480610a435750610a4281610a3d611b4b565b6117e5565b5b610a82576040517f08c379a0000000000000000000000000000000000000000000000000000000008152600401610a7990613cfb565b60405180910390fd5b610a8c8383611c39565b505050565b6000600880549050905090565b600f5481565b610ab5610aaf611b4b565b82611cf2565b610af4576040517f08c379a0000000000000000000000000000000000000000000000000000000008152600401610aeb90613e3b565b60405180910390fd5b610aff838383611dd0565b505050565b610b0c611b4b565b73ffffffffffffffffffffffffffffffffffffffff16610b2a61148e565b73ffffffffffffffffffffffffffffffffffffffff1614610b80576040517f08c379a0000000000000000000000000000000000000000000000000000000008152600401610b7790613d9b565b60405180910390fd5b6000610b8a610a91565b905060005b6032811015610bc057610bad338284610ba89190613f8a565b61202c565b8080610bb890614187565b915050610b8f565b5050565b668e1bc9bf04000081565b6000610bda83611003565b8210610c1b576040517f08c379a0000000000000000000000000000000000000000000000000000000008152600401610c1290613b9b565b60405180910390fd5b600660008473ffffffffffffffffffffffffffffffffffffffff1673ffffffffffffffffffffffffffffffffffffffff168152602001908152602001600020600083815260200190815260200160002054905092915050565b610c7c611b4b565b73ffffffffffffffffffffffffffffffffffffffff16610c9a61148e565b73ffffffffffffffffffffffffffffffffffffffff1614610cf0576040517f08c379a0000000000000000000000000000000000000000000000000000000008152600401610ce790613d9b565b60405180910390fd5b600e60009054906101000a900460ff1615600e60006101000a81548160ff021916908315150217905550565b610d24611b4b565b73ffffffffffffffffffffffffffffffffffffffff16610d4261148e565b73ffffffffffffffffffffffffffffffffffffffff1614610d98576040517f08c379a0000000000000000000000000000000000000000000000000000000008152600401610d8f90613d9b565b60405180910390fd5b60003073ffffffffffffffffffffffffffffffffffffffff163190503373ffffffffffffffffffffffffffffffffffffffff166108fc829081150290604051600060405180830381858888f19350505050158015610dfa573d6000803e3d6000fd5b5050565b610e19838383604051806020016040528060008152506116d0565b505050565b6000610e28610a91565b8210610e69576040517f08c379a0000000000000000000000000000000000000000000000000000000008152600401610e6090613e5b565b60405180910390fd5b60088281548110610ea3577f4e487b7100000000000000000000000000000000000000000000000000000000600052603260045260246000fd5b90600052602060002001549050919050565b610ebd611b4b565b73ffffffffffffffffffffffffffffffffffffffff16610edb61148e565b73ffffffffffffffffffffffffffffffffffffffff1614610f31576040517f08c379a0000000000000000000000000000000000000000000000000000000008152600401610f2890613d9b565b60405180910390fd5b8060109080519060200190610f47929190612d3e565b5050565b6000806002600084815260200190815260200160002060009054906101000a900473ffffffffffffffffffffffffffffffffffffffff169050600073ffffffffffffffffffffffffffffffffffffffff168173ffffffffffffffffffffffffffffffffffffffff161415610ff4576040517f08c379a0000000000000000000000000000000000000000000000000000000008152600401610feb90613d3b565b60405180910390fd5b80915050919050565b600d5481565b60008073ffffffffffffffffffffffffffffffffffffffff168273ffffffffffffffffffffffffffffffffffffffff161415611074576040517f08c379a000000000000000000000000000000000000000000000000000000000815260040161106b90613d1b565b60405180910390fd5b600360008373ffffffffffffffffffffffffffffffffffffffff1673ffffffffffffffffffffffffffffffffffffffff168152602001908152602001600020549050919050565b6110c3611b4b565b73ffffffffffffffffffffffffffffffffffffffff166110e161148e565b73ffffffffffffffffffffffffffffffffffffffff1614611137576040517f08c379a000000000000000000000000000000000000000000000000000000000815260040161112e90613d9b565b60405180910390fd5b600073ffffffffffffffffffffffffffffffffffffffff16600a60009054906101000a900473ffffffffffffffffffffffffffffffffffffffff1673ffffffffffffffffffffffffffffffffffffffff167f8be0079c531659141344cd1fd0a4f28419497f9722a3daafe3b4186f6b6457e060405160405180910390a36000600a60006101000a81548173ffffffffffffffffffffffffffffffffffffffff021916908373ffffffffffffffffffffffffffffffffffffffff160217905550565b611200611b4b565b73ffffffffffffffffffffffffffffffffffffffff1661121e61148e565b73ffffffffffffffffffffffffffffffffffffffff1614611274576040517f08c379a000000000000000000000000000000000000000000000000000000000815260040161126b90613d9b565b60405180910390fd5b6000600c54146112b9576040517f08c379a00000000000000000000000000000000000000000000000000000000081526004016112b090613cdb565b60405180910390fd5b43600b81905550565b600e60009054906101000a900460ff16611311576040517f08c379a000000000000000000000000000000000000000000000000000000000815260040161130890613cbb565b60405180910390fd5b6014811115611355576040517f08c379a000000000000000000000000000000000000000000000000000000000815260040161134c90613c9b565b60405180910390fd5b600d5461137282611364610a91565b61204a90919063ffffffff16565b11156113b3576040517f08c379a00000000000000000000000000000000000000000000000000000000081526004016113aa90613e7b565b60405180910390fd5b346113ce82668e1bc9bf04000061206090919063ffffffff16565b111561140f576040517f08c379a000000000000000000000000000000000000000000000000000000000815260040161140690613c5b565b60405180910390fd5b60005b81811015611456576000611424610a91565b9050600d54611431610a91565b101561144257611441338261202c565b5b50808061144e90614187565b915050611412565b506000600b5414801561147e5750600d5461146f610a91565b148061147d5750600f544210155b5b1561148b5743600b819055505b50565b6000600a60009054906101000a900473ffffffffffffffffffffffffffffffffffffffff16905090565b6060600180546114c790614155565b80601f01602080910402602001604051908101604052809291908181526020018280546114f390614155565b80156115405780601f1061151557610100808354040283529160200191611540565b820191906000526020600020905b81548152906001019060200180831161152357829003601f168201915b5050505050905090565b601481565b611557611b4b565b73ffffffffffffffffffffffffffffffffffffffff168273ffffffffffffffffffffffffffffffffffffffff1614156115c5576040517f08c379a00000000000000000000000000000000000000000000000000000000081526004016115bc90613c3b565b60405180910390fd5b80600560006115d2611b4b565b73ffffffffffffffffffffffffffffffffffffffff1673ffffffffffffffffffffffffffffffffffffffff16815260200190815260200160002060008473ffffffffffffffffffffffffffffffffffffffff1673ffffffffffffffffffffffffffffffffffffffff16815260200190815260200160002060006101000a81548160ff0219169083151502179055508173ffffffffffffffffffffffffffffffffffffffff1661167f611b4b565b73ffffffffffffffffffffffffffffffffffffffff167f17307eab39ab6107e8899845ad3d59bd9653f200f220920489ca2b5937696c31836040516116c49190613b5e565b60405180910390a35050565b6116e16116db611b4b565b83611cf2565b611720576040517f08c379a000000000000000000000000000000000000000000000000000000000815260040161171790613e3b565b60405180910390fd5b61172c84848484612076565b50505050565b606061173d82611bcd565b61177c576040517f08c379a000000000000000000000000000000000000000000000000000000000815260040161177390613ddb565b60405180910390fd5b60006117866120d2565b905060008151116117a657604051806020016040528060008152506117d1565b806117b084612164565b6040516020016117c1929190613ad3565b6040516020818303038152906040525b915050919050565b600c5481565b600b5481565b6000600560008473ffffffffffffffffffffffffffffffffffffffff1673ffffffffffffffffffffffffffffffffffffffff16815260200190815260200160002060008373ffffffffffffffffffffffffffffffffffffffff1673ffffffffffffffffffffffffffffffffffffffff16815260200190815260200160002060009054906101000a900460ff16905092915050565b6000600c54146118be576040517f08c379a00000000000000000000000000000000000000000000000000000000081526004016118b590613cdb565b60405180910390fd5b6000600b541415611904576040517f08c379a00000000000000000000000000000000000000000000000000000000081526004016118fb90613e1b565b60405180910390fd5b600d54600b54406001900461191991906141d0565b600c8190555060ff611936600b544361233090919063ffffffff16565b111561196257600d5460014361194c919061406b565b406001900461195b91906141d0565b600c819055505b6000600c54141561198a576119836001600c5461204a90919063ffffffff16565b600c819055505b565b600e60009054906101000a900460ff1681565b6119a7611b4b565b73ffffffffffffffffffffffffffffffffffffffff166119c561148e565b73ffffffffffffffffffffffffffffffffffffffff1614611a1b576040517f08c379a0000000000000000000000000000000000000000000000000000000008152600401611a1290613d9b565b60405180910390fd5b600073ffffffffffffffffffffffffffffffffffffffff168173ffffffffffffffffffffffffffffffffffffffff161415611a8b576040517f08c379a0000000000000000000000000000000000000000000000000000000008152600401611a8290613bdb565b60405180910390fd5b8073ffffffffffffffffffffffffffffffffffffffff16600a60009054906101000a900473ffffffffffffffffffffffffffffffffffffffff1673ffffffffffffffffffffffffffffffffffffffff167f8be0079c531659141344cd1fd0a4f28419497f9722a3daafe3b4186f6b6457e060405160405180910390a380600a60006101000a81548173ffffffffffffffffffffffffffffffffffffffff021916908373ffffffffffffffffffffffffffffffffffffffff16021790555050565b600033905090565b60007f780e9d63000000000000000000000000000000000000000000000000000000007bffffffffffffffffffffffffffffffffffffffffffffffffffffffff1916827bffffffffffffffffffffffffffffffffffffffffffffffffffffffff19161480611bc65750611bc582612346565b5b9050919050565b60008073ffffffffffffffffffffffffffffffffffffffff166002600084815260200190815260200160002060009054906101000a900473ffffffffffffffffffffffffffffffffffffffff1673ffffffffffffffffffffffffffffffffffffffff1614159050919050565b816004600083815260200190815260200160002060006101000a81548173ffffffffffffffffffffffffffffffffffffffff021916908373ffffffffffffffffffffffffffffffffffffffff160217905550808273ffffffffffffffffffffffffffffffffffffffff16611cac83610f4b565b73ffffffffffffffffffffffffffffffffffffffff167f8c5be1e5ebec7d5bd14f71427d1e84f3dd0314c0f7b2291e5b200ac8c7c3b92560405160405180910390a45050565b6000611cfd82611bcd565b611d3c576040517f08c379a0000000000000000000000000000000000000000000000000000000008152600401611d3390613c7b565b60405180910390fd5b6000611d4783610f4b565b90508073ffffffffffffffffffffffffffffffffffffffff168473ffffffffffffffffffffffffffffffffffffffff161480611db657508373ffffffffffffffffffffffffffffffffffffffff16611d9e846108f4565b73ffffffffffffffffffffffffffffffffffffffff16145b80611dc75750611dc681856117e5565b5b91505092915050565b8273ffffffffffffffffffffffffffffffffffffffff16611df082610f4b565b73ffffffffffffffffffffffffffffffffffffffff1614611e46576040517f08c379a0000000000000000000000000000000000000000000000000000000008152600401611e3d90613dbb565b60405180910390fd5b600073ffffffffffffffffffffffffffffffffffffffff168273ffffffffffffffffffffffffffffffffffffffff161415611eb6576040517f08c379a0000000000000000000000000000000000000000000000000000000008152600401611ead90613c1b565b60405180910390fd5b611ec1838383612428565b611ecc600082611c39565b6001600360008573ffffffffffffffffffffffffffffffffffffffff1673ffffffffffffffffffffffffffffffffffffffff1681526020019081526020016000206000828254611f1c919061406b565b925050819055506001600360008473ffffffffffffffffffffffffffffffffffffffff1673ffffffffffffffffffffffffffffffffffffffff1681526020019081526020016000206000828254611f739190613f8a565b92505081905550816002600083815260200190815260200160002060006101000a81548173ffffffffffffffffffffffffffffffffffffffff021916908373ffffffffffffffffffffffffffffffffffffffff160217905550808273ffffffffffffffffffffffffffffffffffffffff168473ffffffffffffffffffffffffffffffffffffffff167fddf252ad1be2c89b69c2b068fc378daa952ba7f163c4a11628f55a4df523b3ef60405160405180910390a4505050565b612046828260405180602001604052806000815250612438565b5050565b600081836120589190613f8a565b905092915050565b6000818361206e9190614011565b905092915050565b612081848484611dd0565b61208d84848484612493565b6120cc576040517f08c379a00000000000000000000000000000000000000000000000000000000081526004016120c390613bbb565b60405180910390fd5b50505050565b6060601080546120e190614155565b80601f016020809104026020016040519081016040528092919081815260200182805461210d90614155565b801561215a5780601f1061212f5761010080835404028352916020019161215a565b820191906000526020600020905b81548152906001019060200180831161213d57829003601f168201915b5050505050905090565b606060008214156121ac576040518060400160405280600181526020017f3000000000000000000000000000000000000000000000000000000000000000815250905061232b565b600082905060005b600082146121de5780806121c790614187565b915050600a826121d79190613fe0565b91506121b4565b60008167ffffffffffffffff811115612220577f4e487b7100000000000000000000000000000000000000000000000000000000600052604160045260246000fd5b6040519080825280601f01601f1916602001820160405280156122525781602001600182028036833780820191505090505b5090505b600085146123245760018261226b919061406b565b9150600a8561227a91906141d0565b60306122869190613f8a565b7f0100000000000000000000000000000000000000000000000000000000000000028183815181106122e1577f4e487b7100000000000000000000000000000000000000000000000000000000600052603260045260246000fd5b60200101907effffffffffffffffffffffffffffffffffffffffffffffffffffffffffffff1916908160001a905350600a8561231d9190613fe0565b9450612256565b8093505050505b919050565b6000818361233e919061406b565b905092915050565b60007f80ac58cd000000000000000000000000000000000000000000000000000000007bffffffffffffffffffffffffffffffffffffffffffffffffffffffff1916827bffffffffffffffffffffffffffffffffffffffffffffffffffffffff1916148061241157507f5b5e139f000000000000000000000000000000000000000000000000000000007bffffffffffffffffffffffffffffffffffffffffffffffffffffffff1916827bffffffffffffffffffffffffffffffffffffffffffffffffffffffff1916145b80612421575061242082612662565b5b9050919050565b6124338383836126cc565b505050565b61244283836127e0565b61244f6000848484612493565b61248e576040517f08c379a000000000000000000000000000000000000000000000000000000000815260040161248590613bbb565b60405180910390fd5b505050565b60006124b48473ffffffffffffffffffffffffffffffffffffffff166129ae565b15612655578373ffffffffffffffffffffffffffffffffffffffff1663150b7a026124dd611b4b565b8786866040518563ffffffff167c010000000000000000000000000000000000000000000000000000000002815260040161251b9493929190613b12565b602060405180830381600087803b15801561253557600080fd5b505af192505050801561256657506040513d601f19601f8201168201806040525081019061256391906130ea565b60015b6125e9573d8060008114612596576040519150601f19603f3d011682016040523d82523d6000602084013e61259b565b606091505b506000815114156125e1576040517f08c379a00000000000000000000000000000000000000000000000000000000081526004016125d890613bbb565b60405180910390fd5b805181602001fd5b63150b7a027c0100000000000000000000000000000000000000000000000000000000027bffffffffffffffffffffffffffffffffffffffffffffffffffffffff1916817bffffffffffffffffffffffffffffffffffffffffffffffffffffffff19161491505061265a565b600190505b949350505050565b60007f01ffc9a7000000000000000000000000000000000000000000000000000000007bffffffffffffffffffffffffffffffffffffffffffffffffffffffff1916827bffffffffffffffffffffffffffffffffffffffffffffffffffffffff1916149050919050565b6126d78383836129c1565b600073ffffffffffffffffffffffffffffffffffffffff168373ffffffffffffffffffffffffffffffffffffffff16141561271a57612715816129c6565b612759565b8173ffffffffffffffffffffffffffffffffffffffff168373ffffffffffffffffffffffffffffffffffffffff1614612758576127578382612a0f565b5b5b600073ffffffffffffffffffffffffffffffffffffffff168273ffffffffffffffffffffffffffffffffffffffff16141561279c5761279781612b7c565b6127db565b8273ffffffffffffffffffffffffffffffffffffffff168273ffffffffffffffffffffffffffffffffffffffff16146127da576127d98282612cbf565b5b5b505050565b600073ffffffffffffffffffffffffffffffffffffffff168273ffffffffffffffffffffffffffffffffffffffff161415612850576040517f08c379a000000000000000000000000000000000000000000000000000000000815260040161284790613d5b565b60405180910390fd5b61285981611bcd565b15612899576040517f08c379a000000000000000000000000000000000000000000000000000000000815260040161289090613bfb565b60405180910390fd5b6128a560008383612428565b6001600360008473ffffffffffffffffffffffffffffffffffffffff1673ffffffffffffffffffffffffffffffffffffffff16815260200190815260200160002060008282546128f59190613f8a565b92505081905550816002600083815260200190815260200160002060006101000a81548173ffffffffffffffffffffffffffffffffffffffff021916908373ffffffffffffffffffffffffffffffffffffffff160217905550808273ffffffffffffffffffffffffffffffffffffffff16600073ffffffffffffffffffffffffffffffffffffffff167fddf252ad1be2c89b69c2b068fc378daa952ba7f163c4a11628f55a4df523b3ef60405160405180910390a45050565b600080823b905060008111915050919050565b505050565b6008805490506009600083815260200190815260200160002081905550600881908060018154018082558091505060019003906000526020600020016000909190919091505550565b60006001612a1c84611003565b612a26919061406b565b9050600060076000848152602001908152602001600020549050818114612b0b576000600660008673ffffffffffffffffffffffffffffffffffffffff1673ffffffffffffffffffffffffffffffffffffffff168152602001908152602001600020600084815260200190815260200160002054905080600660008773ffffffffffffffffffffffffffffffffffffffff1673ffffffffffffffffffffffffffffffffffffffff168152602001908152602001600020600084815260200190815260200160002081905550816007600083815260200190815260200160002081905550505b6007600084815260200190815260200160002060009055600660008573ffffffffffffffffffffffffffffffffffffffff1673ffffffffffffffffffffffffffffffffffffffff16815260200190815260200160002060008381526020019081526020016000206000905550505050565b60006001600880549050612b90919061406b565b9050600060096000848152602001908152602001600020549050600060088381548110612be6577f4e487b7100000000000000000000000000000000000000000000000000000000600052603260045260246000fd5b906000526020600020015490508060088381548110612c2e577f4e487b7100000000000000000000000000000000000000000000000000000000600052603260045260246000fd5b906000526020600020018190555081600960008381526020019081526020016000208190555060096000858152602001908152602001600020600090556008805480612ca3577f4e487b7100000000000000000000000000000000000000000000000000000000600052603160045260246000fd5b6001900381819060005260206000200160009055905550505050565b6000612cca83611003565b905081600660008573ffffffffffffffffffffffffffffffffffffffff1673ffffffffffffffffffffffffffffffffffffffff168152602001908152602001600020600083815260200190815260200160002081905550806007600084815260200190815260200160002081905550505050565b828054612d4a90614155565b90600052602060002090601f016020900481019282612d6c5760008555612db3565b82601f10612d8557805160ff1916838001178555612db3565b82800160010185558215612db3579182015b82811115612db2578251825591602001919060010190612d97565b5b509050612dc09190612dc4565b5090565b5b80821115612ddd576000816000905550600101612dc5565b5090565b6000612df4612def84613ee7565b613eb6565b905082815260208101848484011115612e0c57600080fd5b612e17848285614113565b509392505050565b6000612e32612e2d84613f17565b613eb6565b905082815260208101848484011115612e4a57600080fd5b612e55848285614113565b509392505050565b600081359050612e6c816142ce565b92915050565b600081359050612e81816142e5565b92915050565b600081359050612e96816142fc565b92915050565b600081519050612eab816142fc565b92915050565b600082601f830112612ec257600080fd5b8135612ed2848260208601612de1565b91505092915050565b600082601f830112612eec57600080fd5b8135612efc848260208601612e1f565b91505092915050565b600081359050612f1481614313565b92915050565b600060208284031215612f2c57600080fd5b6000612f3a84828501612e5d565b91505092915050565b60008060408385031215612f5657600080fd5b6000612f6485828601612e5d565b9250506020612f7585828601612e5d565b9150509250929050565b600080600060608486031215612f9457600080fd5b6000612fa286828701612e5d565b9350506020612fb386828701612e5d565b9250506040612fc486828701612f05565b9150509250925092565b60008060008060808587031215612fe457600080fd5b6000612ff287828801612e5d565b945050602061300387828801612e5d565b935050604061301487828801612f05565b925050606085013567ffffffffffffffff81111561303157600080fd5b61303d87828801612eb1565b91505092959194509250565b6000806040838503121561305c57600080fd5b600061306a85828601612e5d565b925050602061307b85828601612e72565b9150509250929050565b6000806040838503121561309857600080fd5b60006130a685828601612e5d565b92505060206130b785828601612f05565b9150509250929050565b6000602082840312156130d357600080fd5b60006130e184828501612e87565b91505092915050565b6000602082840312156130fc57600080fd5b600061310a84828501612e9c565b91505092915050565b60006020828403121561312557600080fd5b600082013567ffffffffffffffff81111561313f57600080fd5b61314b84828501612edb565b91505092915050565b60006020828403121561316657600080fd5b600061317484828501612f05565b91505092915050565b6131868161409f565b82525050565b613195816140b1565b82525050565b60006131a682613f47565b6131b08185613f5d565b93506131c0818560208601614122565b6131c9816142bd565b840191505092915050565b60006131df82613f52565b6131e98185613f6e565b93506131f9818560208601614122565b613202816142bd565b840191505092915050565b600061321882613f52565b6132228185613f7f565b9350613232818560208601614122565b80840191505092915050565b600061324b602b83613f6e565b91507f455243373231456e756d657261626c653a206f776e657220696e646578206f7560008301527f74206f6620626f756e64730000000000000000000000000000000000000000006020830152604082019050919050565b60006132b1603283613f6e565b91507f4552433732313a207472616e7366657220746f206e6f6e20455243373231526560008301527f63656976657220696d706c656d656e74657200000000000000000000000000006020830152604082019050919050565b6000613317602683613f6e565b91507f4f776e61626c653a206e6577206f776e657220697320746865207a65726f206160008301527f64647265737300000000000000000000000000000000000000000000000000006020830152604082019050919050565b600061337d601c83613f6e565b91507f4552433732313a20746f6b656e20616c7265616479206d696e746564000000006000830152602082019050919050565b60006133bd602483613f6e565b91507f4552433732313a207472616e7366657220746f20746865207a65726f2061646460008301527f72657373000000000000000000000000000000000000000000000000000000006020830152604082019050919050565b6000613423601983613f6e565b91507f4552433732313a20617070726f766520746f2063616c6c6572000000000000006000830152602082019050919050565b6000613463601f83613f6e565b91507f45746865722076616c75652073656e74206973206e6f7420636f7272656374006000830152602082019050919050565b60006134a3602c83613f6e565b91507f4552433732313a206f70657261746f7220717565727920666f72206e6f6e657860008301527f697374656e7420746f6b656e00000000000000000000000000000000000000006020830152604082019050919050565b6000613509602183613f6e565b91507f43616e206f6e6c79206d696e7420323020746f6b656e7320617420612074696d60008301527f65000000000000000000000000000000000000000000000000000000000000006020830152604082019050919050565b600061356f602883613f6e565b91507f53616c65206d7573742062652061637469766520746f206d696e742061204b6960008301527f74747920427574740000000000000000000000000000000000000000000000006020830152604082019050919050565b60006135d5601d83613f6e565b91507f5374617274696e6720696e64657820697320616c7265616479207365740000006000830152602082019050919050565b6000613615603883613f6e565b91507f4552433732313a20617070726f76652063616c6c6572206973206e6f74206f7760008301527f6e6572206e6f7220617070726f76656420666f7220616c6c00000000000000006020830152604082019050919050565b600061367b602a83613f6e565b91507f4552433732313a2062616c616e636520717565727920666f7220746865207a6560008301527f726f2061646472657373000000000000000000000000000000000000000000006020830152604082019050919050565b60006136e1602983613f6e565b91507f4552433732313a206f776e657220717565727920666f72206e6f6e657869737460008301527f656e7420746f6b656e00000000000000000000000000000000000000000000006020830152604082019050919050565b6000613747602083613f6e565b91507f4552433732313a206d696e7420746f20746865207a65726f20616464726573736000830152602082019050919050565b6000613787602c83613f6e565b91507f4552433732313a20617070726f76656420717565727920666f72206e6f6e657860008301527f697374656e7420746f6b656e00000000000000000000000000000000000000006020830152604082019050919050565b60006137ed602083613f6e565b91507f4f776e61626c653a2063616c6c6572206973206e6f7420746865206f776e65726000830152602082019050919050565b600061382d602983613f6e565b91507f4552433732313a207472616e73666572206f6620746f6b656e2074686174206960008301527f73206e6f74206f776e00000000000000000000000000000000000000000000006020830152604082019050919050565b6000613893602f83613f6e565b91507f4552433732314d657461646174613a2055524920717565727920666f72206e6f60008301527f6e6578697374656e7420746f6b656e00000000000000000000000000000000006020830152604082019050919050565b60006138f9602183613f6e565b91507f4552433732313a20617070726f76616c20746f2063757272656e74206f776e6560008301527f72000000000000000000000000000000000000000000000000000000000000006020830152604082019050919050565b600061395f602083613f6e565b91507f5374617274696e6720696e64657820626c6f636b206d757374206265207365746000830152602082019050919050565b600061399f603183613f6e565b91507f4552433732313a207472616e736665722063616c6c6572206973206e6f74206f60008301527f776e6572206e6f7220617070726f7665640000000000000000000000000000006020830152604082019050919050565b6000613a05602c83613f6e565b91507f455243373231456e756d657261626c653a20676c6f62616c20696e646578206f60008301527f7574206f6620626f756e647300000000000000000000000000000000000000006020830152604082019050919050565b6000613a6b602f83613f6e565b91507f507572636861736520776f756c6420657863656564206d617820737570706c7960008301527f206f66204b6974747920427574747300000000000000000000000000000000006020830152604082019050919050565b613acd81614109565b82525050565b6000613adf828561320d565b9150613aeb828461320d565b91508190509392505050565b6000602082019050613b0c600083018461317d565b92915050565b6000608082019050613b27600083018761317d565b613b34602083018661317d565b613b416040830185613ac4565b8181036060830152613b53818461319b565b905095945050505050565b6000602082019050613b73600083018461318c565b92915050565b60006020820190508181036000830152613b9381846131d4565b905092915050565b60006020820190508181036000830152613bb48161323e565b9050919050565b60006020820190508181036000830152613bd4816132a4565b9050919050565b60006020820190508181036000830152613bf48161330a565b9050919050565b60006020820190508181036000830152613c1481613370565b9050919050565b60006020820190508181036000830152613c34816133b0565b9050919050565b60006020820190508181036000830152613c5481613416565b9050919050565b60006020820190508181036000830152613c7481613456565b9050919050565b60006020820190508181036000830152613c9481613496565b9050919050565b60006020820190508181036000830152613cb4816134fc565b9050919050565b60006020820190508181036000830152613cd481613562565b9050919050565b60006020820190508181036000830152613cf4816135c8565b9050919050565b60006020820190508181036000830152613d1481613608565b9050919050565b60006020820190508181036000830152613d348161366e565b9050919050565b60006020820190508181036000830152613d54816136d4565b9050919050565b60006020820190508181036000830152613d748161373a565b9050919050565b60006020820190508181036000830152613d948161377a565b9050919050565b60006020820190508181036000830152613db4816137e0565b9050919050565b60006020820190508181036000830152613dd481613820565b9050919050565b60006020820190508181036000830152613df481613886565b9050919050565b60006020820190508181036000830152613e14816138ec565b9050919050565b60006020820190508181036000830152613e3481613952565b9050919050565b60006020820190508181036000830152613e5481613992565b9050919050565b60006020820190508181036000830152613e74816139f8565b9050919050565b60006020820190508181036000830152613e9481613a5e565b9050919050565b6000602082019050613eb06000830184613ac4565b92915050565b6000604051905081810181811067ffffffffffffffff82111715613edd57613edc61428e565b5b8060405250919050565b600067ffffffffffffffff821115613f0257613f0161428e565b5b601f19601f8301169050602081019050919050565b600067ffffffffffffffff821115613f3257613f3161428e565b5b601f19601f8301169050602081019050919050565b600081519050919050565b600081519050919050565b600082825260208201905092915050565b600082825260208201905092915050565b600081905092915050565b6000613f9582614109565b9150613fa083614109565b9250827fffffffffffffffffffffffffffffffffffffffffffffffffffffffffffffffff03821115613fd557613fd4614201565b5b828201905092915050565b6000613feb82614109565b9150613ff683614109565b92508261400657614005614230565b5b828204905092915050565b600061401c82614109565b915061402783614109565b9250817fffffffffffffffffffffffffffffffffffffffffffffffffffffffffffffffff04831182151516156140605761405f614201565b5b828202905092915050565b600061407682614109565b915061408183614109565b92508282101561409457614093614201565b5b828203905092915050565b60006140aa826140e9565b9050919050565b60008115159050919050565b60007fffffffff0000000000000000000000000000000000000000000000000000000082169050919050565b600073ffffffffffffffffffffffffffffffffffffffff82169050919050565b6000819050919050565b82818337600083830152505050565b60005b83811015614140578082015181840152602081019050614125565b8381111561414f576000848401525b50505050565b6000600282049050600182168061416d57607f821691505b602082108114156141815761418061425f565b5b50919050565b600061419282614109565b91507fffffffffffffffffffffffffffffffffffffffffffffffffffffffffffffffff8214156141c5576141c4614201565b5b600182019050919050565b60006141db82614109565b91506141e683614109565b9250826141f6576141f5614230565b5b828206905092915050565b7f4e487b7100000000000000000000000000000000000000000000000000000000600052601160045260246000fd5b7f4e487b7100000000000000000000000000000000000000000000000000000000600052601260045260246000fd5b7f4e487b7100000000000000000000000000000000000000000000000000000000600052602260045260246000fd5b7f4e487b7100000000000000000000000000000000000000000000000000000000600052604160045260246000fd5b6000601f19601f8301169050919050565b6142d78161409f565b81146142e257600080fd5b50565b6142ee816140b1565b81146142f957600080fd5b50565b614305816140bd565b811461431057600080fd5b50565b61431c81614109565b811461432757600080fd5b5056fea2646970667358221220c3117faa697c4b29191933e2d447ccf1f9b8030069d7972e03129116bf3957ef64736f6c63430008000033",
  "immutableReferences": {},
  "source": "// SPDX-License-Identifier: MIT\n// contracts/KittyButts.sol\n\npragma solidity ^0.8.0;\n\nimport \"@openzeppelin/contracts/utils/Context.sol\";\n// import \"@openzeppelin/contracts/introspection/IERC165.sol\";\n// import \"@openzeppelin/contracts/token/ERC721/IERC721.sol\";\n// import \"@openzeppelin/contracts/token/ERC721/extensions/IERC721Metadata.sol\";\n// import \"@openzeppelin/contracts/token/ERC721/extensions/IERC721Enumerable.sol\";\n// import \"@openzeppelin/contracts/token/ERC721/IERC721Receiver.sol\";\n// import \"@openzeppelin/contracts/introspection/ERC165.sol\";\n// import \"@openzeppelin/contracts/math/SafeMath.sol\";\n// import \"@openzeppelin/contracts/utils/Address.sol\";\n// import \"@openzeppelin/contracts/utils/EnumerableSet.sol\";\n// import \"@openzeppelin/contracts/utils/EnumerableMap.sol\";\n// import \"@openzeppelin/contracts/utils/Strings.sol\";\n// import \"@openzeppelin/contracts/token/ERC721/ERC721.sol\";\n\n\n//Contracts\nimport \"@openzeppelin/contracts/token/ERC721/ERC721.sol\";\n\n//AccessControl\nimport \"@openzeppelin/contracts/access/Ownable.sol\";\n\n//Utilities\nimport \"@openzeppelin/contracts/utils/math/SafeMath.sol\";\n\n//Extensions\nimport \"@openzeppelin/contracts/token/ERC721/extensions/ERC721Enumerable.sol\";\nimport \"@openzeppelin/contracts/token/ERC721/extensions/ERC721URIStorage.sol\";\n\ncontract KittyButts is ERC721, ERC721Enumerable, Ownable {\n\n    using SafeMath for uint256;\n    // string public BAYC_PROVENANCE = \"\";\n    uint256 public startingIndexBlock;\n    uint256 public startingIndex;\n    uint256 public constant kittyPrice = 40000000000000000; //0.04 ETH\n    uint public constant maxPurchase = 20;\n    uint256 public MAX_KITTIES;\n    bool public saleIsActive = false;\n    uint256 public REVEAL_TIMESTAMP;\n\n    string private baseURI;\n\n    //Constructor is called on contract deployment\n    constructor(string memory name, string memory symbol, uint256 maxNftSupply, uint256 saleStart) ERC721(name, symbol) {\n        MAX_KITTIES = maxNftSupply; \n        REVEAL_TIMESTAMP = saleStart + (86400 * 9); //9 days\n    }\n\n    function _beforeTokenTransfer(address from, address to, uint256 tokenId)\n        internal\n        override(ERC721, ERC721Enumerable)\n    {\n        super._beforeTokenTransfer(from, to, tokenId);\n    }\n\n    function supportsInterface(bytes4 interfaceId)\n        public\n        view\n        override(ERC721, ERC721Enumerable)\n        returns (bool)\n    {\n        return super.supportsInterface(interfaceId);\n    }\n\n\tfunction withdraw() public onlyOwner {\n\t\tuint256 balance = address(this).balance;\n\t\tpayable(msg.sender).transfer(balance);\n\t}    \n\n    function reserveTokens() public onlyOwner {        \n        uint supply = totalSupply();\n        uint i;\n        for (i = 0; i < 50; i++) {\n            _safeMint(msg.sender, supply + i);\n        }\n    }    \n\n    function mintKittyButt(uint numberOfTokens) public payable {\n        require(saleIsActive, \"Sale must be active to mint a Kitty Butt\");\n        require(numberOfTokens <= maxPurchase, \"Can only mint 20 tokens at a time\");\n        require(totalSupply().add(numberOfTokens) <= MAX_KITTIES, \"Purchase would exceed max supply of Kitty Butts\");\n        require(kittyPrice.mul(numberOfTokens) <= msg.value, \"Ether value sent is not correct\");\n        \n        for(uint i = 0; i < numberOfTokens; i++) {\n            uint mintIndex = totalSupply();\n            if (totalSupply() < MAX_KITTIES) {\n                _safeMint(msg.sender, mintIndex);\n            }\n        }\n\n        //We set the starting index only once all the presale time has elapsed or when the last token has sold\n        if (startingIndexBlock == 0 && (totalSupply() == MAX_KITTIES || block.timestamp >= REVEAL_TIMESTAMP)) {\n            startingIndexBlock = block.number;\n        } \n    }    \n\n    function setRevealTimestamp(uint256 revealTimeStamp) public onlyOwner {\n        REVEAL_TIMESTAMP = revealTimeStamp;\n    }     \n\n    function flipSaleState() public onlyOwner {\n        saleIsActive = !saleIsActive;\n    }    \n\n    function _baseURI() internal view override returns (string memory) {\n        return baseURI;\n    }\n    \n    function setBaseURI(string memory newBaseURI) public onlyOwner {\n        baseURI = newBaseURI;\n    }\n\n    function setStartingIndex() public {\n        require(startingIndex == 0, \"Starting index is already set\");\n        require(startingIndexBlock != 0, \"Starting index block must be set\");\n        \n        startingIndex = uint(blockhash(startingIndexBlock)) % MAX_KITTIES;\n        // Just a sanity case in the worst case if this function is called late (EVM only stores last 256 block hashes)\n        if (block.number.sub(startingIndexBlock) > 255) {\n            startingIndex = uint(blockhash(block.number - 1)) % MAX_KITTIES;\n        }\n        // Prevent default sequence\n        if (startingIndex == 0) {\n            startingIndex = startingIndex.add(1);\n        }\n    }\n\n    /**\n     * Set the starting index block for the collection, essentially unblocking\n     * setting starting index\n     */\n    function emergencySetStartingIndexBlock() public onlyOwner {\n        require(startingIndex == 0, \"Starting index is already set\");\n        \n        startingIndexBlock = block.number;\n    }    \n\n}\n\n",
  "sourcePath": "/Users/michaelgeorge/Documents/Crypto/safkb/safkb_contract/contracts/KittyButts.sol",
  "compiler": {
    "name": "solc",
    "version": "0.8.0+commit.c7dfd78e.Emscripten.clang"
  },
  "schemaVersion": "3.4.1",
  "updatedAt": "2021-06-22T13:54:41.770Z",
  "networkType": "ethereum",
  "devdoc": {
    "kind": "dev",
    "methods": {
      "approve(address,uint256)": {
        "details": "See {IERC721-approve}."
      },
      "balanceOf(address)": {
        "details": "See {IERC721-balanceOf}."
      },
      "getApproved(uint256)": {
        "details": "See {IERC721-getApproved}."
      },
      "isApprovedForAll(address,address)": {
        "details": "See {IERC721-isApprovedForAll}."
      },
      "name()": {
        "details": "See {IERC721Metadata-name}."
      },
      "owner()": {
        "details": "Returns the address of the current owner."
      },
      "ownerOf(uint256)": {
        "details": "See {IERC721-ownerOf}."
      },
      "renounceOwnership()": {
        "details": "Leaves the contract without owner. It will not be possible to call `onlyOwner` functions anymore. Can only be called by the current owner. NOTE: Renouncing ownership will leave the contract without an owner, thereby removing any functionality that is only available to the owner."
      },
      "safeTransferFrom(address,address,uint256)": {
        "details": "See {IERC721-safeTransferFrom}."
      },
      "safeTransferFrom(address,address,uint256,bytes)": {
        "details": "See {IERC721-safeTransferFrom}."
      },
      "setApprovalForAll(address,bool)": {
        "details": "See {IERC721-setApprovalForAll}."
      },
      "symbol()": {
        "details": "See {IERC721Metadata-symbol}."
      },
      "tokenByIndex(uint256)": {
        "details": "See {IERC721Enumerable-tokenByIndex}."
      },
      "tokenOfOwnerByIndex(address,uint256)": {
        "details": "See {IERC721Enumerable-tokenOfOwnerByIndex}."
      },
      "tokenURI(uint256)": {
        "details": "See {IERC721Metadata-tokenURI}."
      },
      "totalSupply()": {
        "details": "See {IERC721Enumerable-totalSupply}."
      },
      "transferFrom(address,address,uint256)": {
        "details": "See {IERC721-transferFrom}."
      },
      "transferOwnership(address)": {
        "details": "Transfers ownership of the contract to a new account (`newOwner`). Can only be called by the current owner."
      }
    },
    "version": 1
  },
  "userdoc": {
    "kind": "user",
    "methods": {
      "emergencySetStartingIndexBlock()": {
        "notice": "Set the starting index block for the collection, essentially unblocking setting starting index"
      }
    },
    "version": 1
  }
}